:100000000C945E000C9486000C9486000C94860080
:100010000C9486000C9486000C9486000C94860048
:100020000C9486000C9486000C9486000C94860038
:100030000C9486000C9486000C9486000C94860028
:100040000C94CA050C9486000C94B3020C948D0297
:100050000C9486000C9486000C9486000C94860008
:100060000C941B060C94860000000008000201009E
:100070000003040700000000000000000000000072
:10008000250028002B0000000000240027002A0083
:10009000040404040404040402020202020203032E
:1000A0000303030301020408102040800102040836
:1000B00010200102040810207E0A780A11241FBEB5
:1000C000CFEFD8E0DEBFCDBF24E0AAE3B1E001C0AE
:1000D0001D92AF31B207E1F711E0A0E0B1E0E2ED2F
:1000E000FFE102C005900D92AA33B107D9F710E0E5
:1000F000CDE5D0E004C02197FE010E94CA0DCC35A9
:10010000D107C9F70E946F090C94DC0F0C94000012
:10011000FC01538D448D252F30E0842F90E0821B0D
:10012000930B541710F0CF96089501970895FC0192
:10013000918D828D981761F0828DDF01A80FB11D1E
:100140005D968C91928D9F5F9F73928F90E0089542
:100150008FEF9FEF0895FC01918D828D981731F0FC
:10016000828DE80FF11D858D90E008958FEF9FEF50
:100170000895FC01918D228D892F90E0805C9F4F26
:10018000821B91098F739927089589E693E00E9455
:10019000B90021E0892B09F420E0822F0895FC01A9
:1001A000848DDF01A80FB11DA35ABF4F2C91848D00
:1001B00090E001968F739927848FA689B7892C9335
:1001C000A089B1898C9180648C93938D848D9813D0
:1001D00006C00288F389E02D80818F7D8083089599
:1001E000EF92FF920F931F93CF93DF93EC0181E087
:1001F000888F9B8D8C8D981305C0E889F989808143
:1002000085FD24C0F62E0B8D10E00F5F1F4F0F737E
:100210001127E02E8C8DE8120CC00FB607FCFACF28
:10022000E889F989808185FFF5CFCE010E94CF0052
:10023000F1CF8B8DFE01E80FF11DE35AFF4FF082E5
:100240000B8FEA89FB898081806207C0EE89FF8974
:100250006083E889F98980818064808381E090E00F
:10026000DF91CF911F910F91FF90EF900895CF9361
:10027000DF93EC01888D8823C9F0EA89FB898081AE
:1002800085FD05C0A889B9898C9186FD0FC00FB680
:1002900007FCF5CF808185FFF2CFA889B9898C91C1
:1002A00085FFEDCFCE010E94CF00E7CFDF91CF9148
:1002B000089590E0FC01E859FF4F3491FC01EC55A2
:1002C000FF4F2491FC01E057FF4FE491EE2309F426
:1002D0003BC0332339F1333091F038F43130A9F099
:1002E000323001F584B58F7D12C0373091F038304F
:1002F000A1F03430B9F4809180008F7D03C08091EB
:1003000080008F77809380000DC084B58F7784BD87
:1003100009C08091B0008F7703C08091B0008F7DBD
:100320008093B000F0E0EE0FFF1FE458FF4FA5915F
:10033000B4918FB7F894EC91611103C020952E23EE
:1003400001C02E2B2C938FBF08953FB7F894809156
:10035000B0019091B101A091B201B091B30126B565
:10036000A89B05C02F3F19F00196A11DB11D3FBFED
:10037000BA2FA92F982F8827820F911DA11DB11D7B
:10038000BC01CD0142E0660F771F881F991F4A9577
:10039000D1F7089585ED8093BC008091BC0084FD69
:1003A000FCCF10924203089540918601262F30E041
:1003B000240F311D21323105DCF420914203243019
:1003C000C9F4FC0180E090E0861758F43091860172
:1003D0002191DC01AC59BE4FA30FB11D2C930196A6
:1003E000F3CF80918601680F6093860180E00895C5
:1003F00081E0089582E008950895E091440380919A
:100400004303E81730F4F0E0EB5BFC4F808190E0B1
:1004100008958FEF9FEF08959091440380914303D7
:10042000981750F4E92FF0E0EB5BFC4F208130E0AF
:100430009F5F9093440302C02FEF3FEFC9010895DF
:100440008091430390E020914403821B9109089519
:10045000CF92DF92EF92FF920F931F93CF93DF9390
:100460007C01262F972F8A0180916803882391F0C1
:10047000C62FD72F6E01C40ED51ECC15DD0571F029
:100480006991D701ED91FC910190F081E02DC701B8
:100490000995F3CF642F822F0E94D401C801DF9108
:1004A000CF911F910F91FF90EF90DF90CF90089523
:1004B000CF93DF931F92CDB7DEB769832091680396
:1004C0002223D1F020916503203240F021E030E07A
:1004D000FC013383228380E090E015C080916603A5
:1004E000E82FF0E0EC5BFE4F998190838F5F809363
:1004F00066038093650305C061E0CE0101960E940A
:10050000D40181E090E00F90DF91CF91089508959C
:1005100080E090E008950E94C70F1F920F920FB6DF
:100520000F9211242F933F934F935F936F937F9379
:100530008F939F93AF93BF93EF93FF9389E693E0DD
:100540000E94CF00FF91EF91BF91AF919F918F914A
:100550007F916F915F914F913F912F910F900FBEBF
:100560000F901F9018951F920F920FB60F921124A3
:100570002F938F939F93EF93FF93E0917903F091E3
:100580007A038081E0917F03F091800382FD12C0A5
:100590009081809182038F5F8F73209183038217F4
:1005A00051F0E0918203F0E0E759FC4F958F809382
:1005B000820301C08081FF91EF919F918F912F91D4
:1005C0000F900FBE0F901F9018958F929F92AF9231
:1005D000BF92CF92DF92EF92FF926B017C010E945B
:1005E000A5014B015C01C114D104E104F104F1F057
:1005F0000E94A501DC01CB0188199909AA09BB0950
:10060000883E9340A105B10570F321E0C21AD108DC
:10061000E108F10888EE880E83E0981EA11CB11C49
:10062000C114D104E104F10419F7DDCFFF90EF907C
:10063000DF90CF90BF90AF909F908F9008952F92B2
:100640003F924F925F926F927F928F929F92AF9262
:10065000BF92CF92DF92EF92FF920F931F93CF93AF
:10066000DF93CDB7DEB7AA970FB6F894DEBF0FBE03
:10067000CDBF89E693E00E94970080934301282F25
:10068000082E000C330B205331092A30310520F598
:1006900089831A8200911604109117040F5F1F4F6F
:1006A000B80182E194E00E941D09882309F453C235
:1006B0002091120430911304809116049091170434
:1006C000BE016F5F7F4F820F931F0E94D50F109363
:1006D0001704009316043FC28A3009F0B6C11A828B
:1006E00019821C821B821E821D82609112047091ED
:1006F00013046115710541F04091160450911704DF
:10070000CE0101960E94440980914201882309F498
:100710003EC180913E01811116C061E08CE00E94D3
:10072000590189819A81009719F00E94CD0A03C06E
:1007300060E070E0CB017093400160933F0181E085
:1007400080933E0175C100913C0110913D01E09004
:100750003A01F0903B0189819A81009719F00E943B
:10076000CD0A03C060E070E0CB0126E0209FF001DD
:10077000219FF00D1124EE0DFF1DEE0FFF1FEC5415
:10078000FE4F71836083C70101968530910529F082
:1007900090933B0180933A014BC110923B01109220
:1007A0003A01A8014F5F5F4F50933D0140933C01D8
:1007B00080913F01909140014817590709F038C1D5
:1007C00010923D0110923C011092420110923E01A4
:1007D000E0ECF1E061E070E06417750734F520E0CB
:1007E00030E0E12CF12CCF01820F931F8C010C50D3
:1007F0001109DC018D919C91D8010D911C91801BF8
:10080000910B97FF03C0919581959109E816F90620
:100810000CF47C012E5F3F4F2A30310521F7F3861F
:10082000E2866F5F7F4F3C96D7CF60E08CE00E94FE
:10083000590104EB11E0180180E090E020913F01A4
:100840003091400121503109821793070CF080C08C
:10085000E12CF12C9C012F5F3F4F3AA729A7C10142
:100860000C969CA38BA3D10156968D919C91579782
:10087000E816F9060CF067C01AA2C12CD12CC701EA
:100880000F2C000CAA0BBB0B8DA39EA3AFA3B8A784
:10089000F101EC0DFD1D60807180B301072C000C8F
:1008A000880B990B0E940B0B4B015C01EBA1FCA187
:1008B000EC0DFD1D6081718166197709072E000C12
:1008C000880B990B0E940B0B2B013C01D101569612
:1008D0006D917C915797072E000C880B990B0E9405
:1008E0000B0B9B01AC01C301B2010E94A80C2B01B0
:1008F0003C016DA17EA18FA198A50E940B0B9B01CD
:10090000AC01C301B2010E94460B9B01AC01C501C1
:10091000B4010E943C0C0E941A0D8AA10E94D107CA
:10092000B2E0CB0ED11CEAA1EF5FEAA3E53009F0FB
:10093000AFCF6CE070E080E090E00E94E502FFEF56
:10094000EF1AFF0A90CF89A59AA52BA03CA076CFDD
:100950008EE291E00E94120820913F013091400107
:1009600080E090E0821793070CF062C0F8011182DA
:1009700010821382128215821482178216821186C7
:100980001086138612860196045F1F4FEBCF80916D
:100990004101882309F44CC089819A81009719F09C
:1009A0000E94CD0A03C060E070E0CB0170930301A8
:1009B0006093020110924101009100011091010128
:1009C000601771070CF1809102019091030180176B
:1009D00091076CF0B80185E00E94D10764E170E0F6
:1009E00080E090E00E94E5020F5F1F4FECCF809106
:1009F00002019091030190930101809300018EE226
:100A000091E00E94120814C08091020190910301AC
:100A10000817190764F3B80185E00E94D10764E163
:100A200070E080E090E00E94E50201501109ECCFF7
:100A300089819A810E94650E40E050E066E371E092
:100A400082E194E00E94440986C0803521F481E06F
:100A50008093420180C0873421F481E0809341017A
:100A60007AC0843509F077C084EBC82E81E0D82E97
:100A7000E12CF12C9AE0492E512C612C712C8091A3
:100A80003F0190914001E816F9060CF064C000E0C7
:100A900010E0F601E00FF11F80809180092C000C1E
:100AA000AA08BB08B7FE26C0E0916903F0916A036B
:100AB0000190F081E02D6DE289E693E0099522270F
:100AC0003327A901281939094A095B0919A2CE015E
:100AD00081965C01CA01B901A30192010E94A80D8F
:100AE000605DD5016E935D0121153105410551050C
:100AF00089F715C0A501940119A2FE01B1965F0105
:100B0000CA01B901A30192010E94A80D605DD5013F
:100B10006E935D01211531054105510589F7C50128
:100B20000E94120880E391E00E9412080E5F1F4F9E
:100B30000C30110509F0ADCF82E391E00E9412085C
:100B400084E391E00E941208BFEFEB1AFB0AECE08D
:100B5000CE0ED11C94CFAA960FB6F894DEBF0FBE6E
:100B6000CDBFDF91CF911F910F91FF90EF90DF905C
:100B7000CF90BF90AF909F908F907F906F905F903D
:100B80004F903F902F9008950E94C50081110C94C2
:100B90001F0308951F920F920FB60F9211242F93E7
:100BA0003F938F939F93AF93BF938091AC019091AC
:100BB000AD01A091AE01B091AF013091AB0123E046
:100BC000230F2D3720F40196A11DB11D05C026E885
:100BD000230F0296A11DB11D2093AB018093AC01A0
:100BE0009093AD01A093AE01B093AF018091B0019D
:100BF0009091B101A091B201B091B3010196A11DF4
:100C0000B11D8093B0019093B101A093B201B09354
:100C1000B301BF91AF919F918F913F912F910F9011
:100C20000FBE0F901F901895DC01ED91FC91019083
:100C3000F081E02D09941F920F920FB60F921124AC
:100C40002F933F934F935F936F937F938F939F93D4
:100C5000AF93BF93EF93FF938091B900887F803665
:100C600009F49CC068F5883209F45BC090F48031C7
:100C700009F454C038F4882309F4F6C0883009F424
:100C80004DC0F6C0883109F44CC0803209F45DC013
:100C9000EFC0803409F468C048F4803309F455C0CB
:100CA000883309F0E5C080934003D8C0803509F44B
:100CB0004FC0883509F45DC0883409F0D9C0D6C06A
:100CC000883909F4C7C0A8F4883709F467C038F434
:100CD000883609F463C0803709F460C0C9C0883819
:100CE00009F4B8C0803909F45FC0803809F0C0C089
:100CF0005BC0803B09F486C038F4803A09F466C0D2
:100D0000883A09F47FC0B4C0803C09F4A7C0883C8D
:100D100009F4A4C0883B09F48AC0AAC080913D03AD
:100D200010C090913F0380913E03981770F5E091B9
:100D30003F0381E08E0F80933F03F0E0E45EFC4FC1
:100D400080818093BB0085EC86C0809340038EC079
:100D5000E0913F0381E08E0F80933F038091BB00C1
:100D6000F0E0E45EFC4F808390913F0380913E036E
:100D70006EC0E0913F0381E08E0F80933F0380912E
:100D8000BB00F0E0E45EFC4F808380914103811161
:100D90006DC081E080933C0384EA61C083E080936E
:100DA00042031092AA01CFCF8091AA01803208F0AD
:100DB00051C0E091AA0181E08E0F8093AA01809139
:100DC000BB00F0E0E657FE4F8083BDCF85EC8093FB
:100DD000BC00109242038091AA01803230F4E0916D
:100DE000AA01F0E0E657FE4F10826091AA0170E080
:100DF000E0918801F09189018AE891E009951092CB
:100E0000AA0136C084E080934203109287011092B9
:100E10008601E0918401F091850109958091860118
:100E2000811105C081E08093860110926401E091F8
:100E3000870181E08E0F80938701F0E0EC59FE4F2F
:100E400080818093BB0090918701809186019817E3
:100E500008F479CF85E88093BC000AC085EC8093C4
:100E6000BC001092420304C0109240030E94CA01C9
:100E7000FF91EF91BF91AF919F918F917F916F9172
:100E80005F914F913F912F910F900FBE0F901F9048
:100E900018952091650390916703213208F04AC0AC
:100EA000809142038111FCCF32E03093420331E064
:100EB000309341033FEF3093400310923F03209360
:100EC0003E03A4E4B1E04CE153E0FA013E2F341BB1
:100ED000321718F43D913193F9CF10923D032091D0
:100EE0003D03990F922B90933D0390913C039130D9
:100EF00061F410923C0390913D039093BB0090915C
:100F0000BC0093FDF8CF95EC01C095EE9093BC002A
:100F1000909142039230E1F3909140039F3F79F02A
:100F200080914003803241F080914003803331F062
:100F300084E005C081E003C082E001C083E010923C
:100F4000660310926503109268030895CF92DF92B2
:100F5000EF92FF920F931F93CF93DF936C017A016F
:100F60008B01C0E0D0E0CE15DF0589F0D8016D918E
:100F70008D01D601ED91FC910190F081E02DC6012B
:100F80000995892B11F47E0102C02196ECCFC7018F
:100F9000DF91CF911F910F91FF90EF90DF90CF9055
:100FA00008950F931F93CF93DF938B01C8E1D4E093
:100FB000988121E020936803909367031092660361
:100FC00010926503A981BA81ED91FC91119724E0FB
:100FD000829FC0011124BC016A5F7F4F0190F081A4
:100FE000E02DCD01099560E070E089819A810E9431
:100FF000140660E070E089819A810E941406B801AD
:1010000089819A810E941406612F70E089819A81FA
:101010000E94140689819A81DF91CF911F910F91CF
:101020000C944907009769F0FC0101900020E9F752
:101030003197AF01481B590BBC0189E693E00C9432
:10104000A60780E090E008951F93CF93DF93162FBB
:10105000C8E1D4E0988121E020936803909367036E
:101060001092660310926503A981BA81ED91FC91FB
:1010700011970190F081E02D682FCD0109958981AC
:101080009A81DC01ED91FC910190F081E02D612FBE
:10109000099589819A81DF91CF911F910C9449071D
:1010A000CF93DF9326E636E646E65FE30E94460BE3
:1010B0009B01AC0160E27CEB8EEB95E40E94A80CF6
:1010C00020E030E040E85FE30E943B0C20E030E0AD
:1010D00040E05FE30E943C0C0E94500D0E94210DF5
:1010E000D62F8091180491E0909368038093670352
:1010F00010926603109265038091190490911A046E
:10110000DC01ED91FC910190F081E02D60E009950A
:101110008091190490911A040E9449078091180443
:10112000909142039111FCCF91E0909342039093F0
:1011300041032FEF2093400310923F0310923E0390
:1011400090933D0390913D03880F892B80933D033D
:1011500080913C03813061F410923C0380913D0307
:101160008093BB008091BC0083FDF8CF85EC01C06B
:1011700085EE8093BC00809142038130E1F3809141
:101180003F03811103C080913F0301C081E0ACE1C6
:10119000B3E025E433E0F9019E2F921B981718F471
:1011A0009D919193F9CF10924403809343038091D2
:1011B000190490911A04DC01ED91FC910284F385ED
:1011C000E02D0995C82F8F76682F606180E00E941E
:1011D00024086D2F8EEF0E9424086C2F80E00E945F
:1011E000240865E070E080E090E00E94E5026C2F4A
:1011F000606A80E0DF91CF910C94240890E0FC01BC
:10120000EC55FF4F2491FC01E057FF4F8491882358
:1012100099F090E0880F991FFC01EA57FF4FA591C4
:10122000B491FC01E458FF4F859194918FB7F894E5
:10123000EC91E22BEC938FBF08950F931F93CF9304
:10124000DF93EC0188819981009729F02A813B8105
:101250002617370788F48B016F5F7F4F0E94FD0EC2
:10126000009761F0998388831B830A832C813D81D9
:10127000232B11F4FC01108281E001C080E0DF919A
:10128000CF911F910F910895EF92FF920F931F93AB
:10129000CF93DF93EC017B018A01BA010E941D0903
:1012A0002881398181110DC02115310519F0C9013D
:1012B0000E94650E198218821D821C821B821A826E
:1012C00006C01D830C83B701C9010E94D50FCE0152
:1012D000DF91CF911F910F91FF90EF900895789437
:1012E00084B5826084BD84B5816084BD85B582602B
:1012F00085BD85B5816085BD80916E0081608093DC
:101300006E00109281008091810082608093810044
:101310008091810081608093810080918000816054
:10132000809380008091B10084608093B1008091AF
:10133000B00081608093B00080917A0084608093D7
:101340007A0080917A00826080937A0080917A009E
:10135000816080937A0080917A00806880937A001F
:101360001092C1008DE00E94FE088CE00E94FE08F1
:10137000E0917903F0917A0382E08083E091750334
:10138000F09176031082E0917703F091780380E189
:10139000808310928103E0917D03F0917E0386E0CB
:1013A0008083E0917B03F0917C0380818061808366
:1013B000E0917B03F0917C03808188608083E091E1
:1013C0007B03F0917C03808180688083E0917B03C4
:1013D000F0917C0380818F7D808310924403109272
:1013E000430310926603109265031092420381E05A
:1013F0008093410310923C0361E082E10E94590115
:1014000061E083E10E9459018091B9008E7F809351
:10141000B9008091B9008D7F8093B90088E48093F2
:10142000B80085E48093BC0060E880E00E94240856
:101430006AE070E080E090E00E94E50260E070E029
:101440008AE794E40E94500860E070E080E792E44C
:101450000E9450086EE571E080E00E94D1076EE7BF
:1014600071E081E00E94D1076BE571E082E00E94AB
:10147000D10763E671E083E00E94D1076CE671E07A
:1014800084E00E94D1076AE671E085E00E94D107FE
:1014900089E693E00E94B900181619067CF087E3EC
:1014A00091E00E94120884E391E00E9412086CE22D
:1014B00071E080E090E00E94E502EACF61E08DE01B
:1014C0000E945901E4EBF1E0118210821382128232
:1014D0001582148217821682118610861386128650
:1014E0003C9683E0EC31F80779F70E94C405FDCF04
:1014F00080911204909113040C94650EE9E6F3E0D8
:101500001382128288EE93E0A0E0B0E0848395839A
:10151000A683B7832EE031E03183208325EC30E0D1
:101520003587248724EC30E03787268720EC30E0AD
:10153000318B208B21EC30E0338B228B22EC30E09E
:10154000358B248B26EC30E0378B268B118E128E58
:10155000138E148EE6E0F4E0138212828483958366
:10156000A683B78380E291E091838083A8E1B4E011
:1015700080E48C931296FC93EE931197E2E1F4E0F1
:1015800011821082138212821582148240E050E090
:1015900066E371E0CF010C9444091F93FC01992785
:1015A0008827BC01E89411911032E9F3193010F04A
:1015B0001E30C8F31B3251F01D3249F4689406C046
:1015C0000E94F40A610F711D811D911D119110532C
:1015D0001A30B0F33EF490958095709561957F4FE9
:1015E0008F4F9F4F1F910895592F482F372F262F28
:1015F000660F771F881F991F660F771F881F991F17
:10160000620F731F841F951F660F771F881F991F16
:101610000895E89409C097FB3EF4909580957095E5
:1016200061957F4F8F4F9F4F9923A9F0F92F96E92E
:10163000BB279395F695879577956795B795F111A3
:10164000F8CFFAF4BB0F11F460FF1BC06F5F7F4F40
:101650008F4F9F4F16C0882311F096E911C0772352
:1016600021F09EE8872F762F05C0662371F096E85B
:10167000862F70E060E02AF09A95660F771F881F2A
:10168000DAF7880F9695879597F908950E94590B78
:101690000C94CA0B0E94BC0B38F00E94C30B20F0C4
:1016A000952311F00C94B30B0C94B90B11240C94EA
:1016B000FE0B0E94DB0B70F3959FC1F3950F50E07A
:1016C000551F629FF001729FBB27F00DB11D639FF4
:1016D000AA27F00DB11DAA1F649F6627B00DA11D9A
:1016E000661F829F2227B00DA11D621F739FB00D40
:1016F000A11D621F839FA00D611D221F749F3327B0
:10170000A00D611D231F849F600D211D822F762F48
:101710006A2F11249F5750409AF0F1F088234AF025
:10172000EE0FFF1FBB1F661F771F881F9150504091
:10173000A9F79E3F510580F00C94B30B0C94FE0B5F
:101740005F3FE4F3983ED4F3869577956795B79518
:10175000F795E7959F5FC1F7FE2B880F911D969532
:10176000879597F9089597F99F6780E870E060E0A2
:1017700008959FEF80EC089500240A94161617062A
:1017800018060906089500240A9412161306140672
:1017900005060895092E0394000C11F4882352F0D5
:1017A000BB0F40F4BF2B11F460FF04C06F5F7F4F8D
:1017B0008F4F9F4F089557FD9058440F551F59F074
:1017C0005F3F71F04795880F97FB991F61F09F3F2E
:1017D00079F087950895121613061406551FF2CF57
:1017E0004695F1DF08C0161617061806991FF1CFA7
:1017F00086957105610508940895E894BB276627CE
:101800007727CB0197F908952F923F924F925F92DD
:101810006F927F928F929F92AF92BF92CF92DF9200
:10182000EF92FF920F931F93CF93DF93CDB7DEB765
:10183000CA1BDB0B0FB6F894DEBF0FBECDBF0994F9
:101840002A88398848885F846E847D848C849B8450
:10185000AA84B984C884DF80EE80FD800C811B815E
:10186000AA81B981CE0FD11D0FB6F894DEBF0FBE8D
:10187000CDBFED0108955058BB27AA270E94530CF5
:101880000C94CA0B0E94BC0B38F00E94C30B20F0D2
:1018900039F49F3F19F426F40C94B90B0EF4E0953B
:1018A000E7FB0C94B30BE92F0E94DB0B58F3BA173C
:1018B000620773078407950720F079F4A6F50C9466
:1018C000FD0B0EF4E0950B2EBA2FA02D0B01B901E4
:1018D00090010C01CA01A0011124FF27591B99F0A6
:1018E000593F50F4503E68F11A16F040A22F232FB2
:1018F000342F4427585FF3CF469537952795A79502
:10190000F0405395C9F77EF41F16BA0B620B730BA8
:10191000840BBAF09150A1F0FF0FBB1F661F771F19
:10192000881FC2F70EC0BA0F621F731F841F48F4CE
:10193000879577956795B795F7959E3F08F0B0CF57
:101940009395880F08F09927EE0F9795879508953E
:101950000E94BC0C0C94CA0B0E94C30B58F00E944E
:10196000BC0B40F029F45F3F29F00C94B30B5111EC
:101970000C94FE0B0C94B90B0E94DB0B68F39923BB
:10198000B1F3552391F3951B550BBB27AA2762177B
:101990007307840738F09F5F5F4F220F331F441F88
:1019A000AA1FA9F335D00E2E3AF0E0E832D09150BC
:1019B0005040E695001CCAF72BD0FE2F29D0660FA9
:1019C000771F881FBB1F261737074807AB07B0E8EC
:1019D00009F0BB0B802DBF01FF2793585F4F3AF0F2
:1019E0009E3F510578F00C94B30B0C94FE0B5F3FB7
:1019F000E4F3983ED4F3869577956795B795F79578
:101A00009F5FC9F7880F911D9695879597F908955F
:101A1000E1E0660F771F881FBB1F621773078407FB
:101A2000BA0720F0621B730B840BBA0BEE1F88F70A
:101A3000E09508950E94210D6894B1110C94FE0B5D
:101A400008950E94E30B88F09F5798F0B92F9927CB
:101A5000B751B0F0E1F0660F771F881F991F1AF099
:101A6000BA95C9F714C0B13091F00E94FD0BB1E0F6
:101A700008950C94FD0B672F782F8827B85F39F0F5
:101A8000B93FCCF3869577956795B395D9F73EF432
:101A900090958095709561957F4F8F4F9F4F0895DA
:101AA0000E94900D90F09F3748F4911116F00C941D
:101AB000FE0B60E070E080E89FEB089526F41B16B3
:101AC000611D711D811D0C94670D0C94820D88237E
:101AD00071F4772321F09850872B762F07C0662367
:101AE00011F499270DC09051862B70E060E02AF028
:101AF0009A95660F771F881FDAF7880F9695879556
:101B000097F908959F3F31F0915020F4879577958C
:101B10006795B795880F911D9695879597F90895C4
:101B20000E94E30BA0F0BEE7B91788F4BB279F38EB
:101B300060F41616B11D672F782F8827985FF7CFAE
:101B4000869577956795B11D93959639C8F3089555
:101B5000A1E21A2EAA1BBB1BFD010DC0AA1FBB1FB1
:101B6000EE1FFF1FA217B307E407F50720F0A21B23
:101B7000B30BE40BF50B661F771F881F991F1A9490
:101B800069F760957095809590959B01AC01BD01BA
:101B9000CF010895EE0FFF1F0590F491E02D0994F9
:101BA000CF93DF938230910510F482E090E0E091D2
:101BB0001D04F0911E0420E030E0C0E0D0E030973A
:101BC00011F14081518148175907C0F04817590752
:101BD00061F482819381209719F09B838A832BC0C3
:101BE00090931E0480931D0426C02115310519F021
:101BF0004217530718F49A01BE01DF01EF0102807A
:101C0000F381E02DDCCF2115310509F1281B390BBB
:101C10002430310590F412968D919C9113976115A3
:101C2000710521F0FB019383828304C090931E040D
:101C300080931D04FD01329644C0FD01E20FF31FA5
:101C400081939193225031092D933C933AC0209176
:101C50001B0430911C04232B41F420910601309188
:101C6000070130931C0420931B0420910401309140
:101C700005012115310541F42DB73EB7409108010A
:101C800050910901241B350BE0911B04F0911C04B9
:101C9000E217F307A0F42E1B3F0B2817390778F043
:101CA000AC014E5F5F4F2417350748F04E0F5F1FA2
:101CB00050931C0440931B048193919302C0E0E075
:101CC000F0E0CF01DF91CF9108950F931F93CF9351
:101CD000DF93009709F48CC0FC01329713821282C3
:101CE00000911D0410911E040115110581F420813D
:101CF0003181820F931F20911B0430911C042817FF
:101D0000390779F5F0931C04E0931B0471C0D801E6
:101D100040E050E0AE17BF0750F412962D913C9171
:101D20001397AD012115310509F1D901F3CF9D01BB
:101D3000DA013383228360817181860F971F8217B6
:101D4000930769F4EC0128813981260F371F2E5F34
:101D50003F4F318320838A819B8193838283452BEC
:101D600029F4F0931E04E0931D0442C01396FC93E3
:101D7000EE931297ED01499159919E01240F351F61
:101D8000E217F30771F480819181840F951F029609
:101D900011969C938E938281938113969C938E933C
:101DA0001297E0E0F0E0D80112968D919C91139784
:101DB000009719F0F8018C01F6CF8D919C91980154
:101DC0002E5F3F4F820F931F20911B0430911C0404
:101DD0002817390769F4309729F410921E041092DD
:101DE0001D0402C01382128210931C0400931B0472
:101DF000DF91CF911F910F910895A0E0B0E0E3E053
:101E0000FFE00C94080CEC01009721F4CB010E9438
:101E1000D00DB8C0FC01E60FF71F9C01225031091C
:101E2000E217F30708F4ACC0D9010D911C9111978A
:101E300006171707B0F00530110508F49FC0C80158
:101E400004978617970708F499C002501109061BDA
:101E5000170B019311936D937C93CF010E94650E34
:101E60008DC05B01A01AB10A4C01800E911EA09199
:101E70001D04B0911E0440E050E0E12CF12C1097BD
:101E800009F44AC0A815B905D1F56D907C90119759
:101E9000630182E0C80ED11CCA14DB0480F1A301E7
:101EA0004A195B096A0182E0C80ED11C1296BC90E7
:101EB00012971396AC91B5E0CB16D10440F0B282E4
:101EC000A38351834083D9016D937C930AC00E5F35
:101ED0001F4FC301800F911FF90191838083EB2D68
:101EE000FA2FE114F10431F0D7011396FC93EE932D
:101EF000129744C0F0931E04E0931D043FC08D91DF
:101F00009C9111974817590708F4AC017D0112966E
:101F10000D90BC91A02DB3CF80911B0490911C0417
:101F200088159905E1F446175707C8F48091040114
:101F300090910501009741F48DB79EB7409108013B
:101F400050910901841B950BE817F907C8F4F09329
:101F50001C04E0931B04F901718360830FC0CB0163
:101F60000E94D00D7C01009759F0A801BE010E948B
:101F7000CC0FCE010E94650EC70104C0CE0102C085
:101F800080E090E0CDB7DEB7EEE00C94240C81E069
:101F900090E0F8940C94DC0FFB01DC0102C001908E
:101FA0000D9241505040D8F70895FB01DC0101909B
:101FB0000D920020E1F7089510E0CDE5D0E004C0D7
:101FC000FE010E94CA0D2196CE35D107C9F7F894BB
:021FD000FFCF41
:101FD2006A016A0100001F04800000000000F00096
:101FE200A60788003701B9009700AB000000000087
:101FF200580228028802FC0120020C02FD01460060
:0A20020020000D000D0A004100004F
:107800000C94343C0C94513C0C94513C0C94513CE1
:107810000C94513C0C94513C0C94513C0C94513CB4
:107820000C94513C0C94513C0C94513C0C94513CA4
:107830000C94513C0C94513C0C94513C0C94513C94
:107840000C94513C0C94513C0C94513C0C94513C84
:107850000C94513C0C94513C0C94513C0C94513C74
:107860000C94513C0C94513C11241FBECFEFD8E036
:10787000DEBFCDBF11E0A0E0B1E0ECE9FFE702C060
:1078800005900D92A230B107D9F712E0A2E0B1E065
:1078900001C01D92AD30B107E1F70E942D3D0C945F
:1078A000CC3F0C94003C982F959595959595959582
:1078B000905D8F708A307CF0282F295A8091C0000B
:1078C00085FFFCCF9093C6008091C00085FFFCCF60
:1078D0002093C6000895282F205DF0CF982F809127
:1078E000C00085FFFCCF9093C6000895EF92FF92F1
:1078F0000F931F93EE24FF2487018091C00087FD22
:1079000017C00894E11CF11C011D111D81E4E8164B
:1079100082E4F8068FE0080780E0180770F3E09132
:107920000401F091050109958091C00087FFE9CF1E
:107930008091C6001F910F91FF90EF9008950E94D3
:10794000763C982F8091C00085FFFCCF9093C600B5
:1079500091362CF490330CF09053892F089597555D
:10796000892F08951F930E949F3C182F0E949F3CCF
:107970001295107F810F1F9108951F93182F882350
:1079800021F00E94763C1150E1F71F9108951F935A
:10799000182F0E94763C803249F0809103018F5F5E
:1079A000809303018530C1F01F9108958091C0003C
:1079B00085FFFCCF84E18093C6008091C00085FFE5
:1079C000FCCF1093C6008091C00085FFFCCF80E102
:1079D0008093C6001F910895E0910401F091050184
:1079E00009951F9108950E94763C803241F0809164
:1079F00003018F5F80930301853081F008958091AA
:107A0000C00085FFFCCF84E18093C6008091C00058
:107A100085FFFCCF80E18093C6000895E0910401CA
:107A2000F09105010995089540E951E08823A1F0FE
:107A30002D9A28EE33E0FA013197F1F721503040CA
:107A4000D1F72D9828EE33E0FA013197F1F7215064
:107A50003040D1F7815061F708953F924F925F9285
:107A60006F927F928F929F92AF92BF92CF92DF924E
:107A7000EF92FF920F931F93CF93DF93000080E16B
:107A80008093C4001092C50088E18093C10086E015
:107A90008093C2005098589A259A81E00E94143D24
:107AA00024E1F22E9EE1E92E85E9D82E0FE0C02ECA
:107AB00010E1B12EAA24A394B1E49B2EA6E58A2E50
:107AC000F2E57F2EE0E26E2E79E4572E63E5462E36
:107AD00050E5352E0E94763C8033B1F18133B9F107
:107AE000803409F46FC0813409F476C0823409F41B
:107AF00085C0853409F488C0803531F1823521F1A3
:107B0000813511F1853509F485C0863509F48DC0BC
:107B1000843609F496C0843709F403C1853709F423
:107B200072C1863709F466C0809103018F5F80932C
:107B30000301853079F6E0910401F0910501099582
:107B40000E94763C803351F60E94F33CC3CF0E94E2
:107B5000763C803249F78091C00085FFFCCFF092DF
:107B6000C6008091C00085FFFCCF9092C600809136
:107B7000C00085FFFCCF8092C6008091C00085FFC9
:107B8000FCCF7092C6008091C00085FFFCCF609250
:107B9000C6008091C00085FFFCCF5092C600809146
:107BA000C00085FFFCCF4092C6008091C00085FFD9
:107BB000FCCF3092C6008091C00085FFFCCFB09210
:107BC000C60088CF0E94763C863808F4BDCF0E945C
:107BD000763C0E94F33C7ECF0E94763C803809F4CC
:107BE0009CC0813809F40BC1823809F43CC1883942
:107BF00009F48FC080E00E94C73C6CCF84E10E94F2
:107C0000BD3C0E94F33C66CF85E00E94BD3C0E94D3
:107C1000F33C60CF0E94763C809306010E94763C44
:107C2000809307010E94F33C55CF0E94763C80333D
:107C300009F41DC183E00E94BD3C80E00E94C73C66
:107C400049CF0E94763C809309020E94763C809343
:107C5000080280910C028E7F80930C020E94763C79
:107C6000853409F415C18091080290910902892B8D
:107C700089F000E010E00E94763CF801E85FFE4FDA
:107C800080830F5F1F4F80910802909109020817AF
:107C9000190788F30E94763C803209F045CF809125
:107CA0000C0280FF01C16091060170910701660F0F
:107CB000771F7093070160930601A0910802B091AD
:107CC00009021097C9F0E8E0F1E09B01AD014E0F09
:107CD0005F1FF999FECF32BD21BD819180BDFA9A17
:107CE000F99A2F5F3F4FE417F50799F76A0F7B1F4B
:107CF00070930701609306018091C00085FFFCCF5F
:107D0000F092C6008091C00085FFFCCFB092C60003
:107D1000E1CE83E00E94C73CDDCE82E00E94C73CFA
:107D2000D9CE0E94763C809309020E94763C8093D3
:107D300008028091060190910701880F991F909386
:107D40000701809306010E94763C853409F4A6C0A1
:107D500080910C028E7F80930C020E94763C8032D0
:107D600009F0B8CE8091C00085FFFCCFF092C6002C
:107D7000609108027091090261157105B9F140E046
:107D800050E080910C02A82FA170B82FB27011C0E2
:107D9000BB2309F45CC0E0910601F0910701319624
:107DA000F0930701E09306014F5F5F4F46175707B7
:107DB000E8F4AA2369F3F999FECF209106013091E6
:107DC000070132BD21BDF89A90B58091C00085FFB2
:107DD000FCCF9093C6002F5F3F4F30930701209355
:107DE00006014F5F5F4F4617570718F38091C00099
:107DF00085FDE5CE8091C00085FFF8CFE0CE81E023
:107E00000E94C73C67CE0E94763C803209F08CCE3F
:107E10008091C00085FFFCCFF092C6008091C00029
:107E200085FFFCCFE092C6008091C00085FFFCCFAB
:107E3000D092C6008091C00085FFFCCFC092C600E2
:107E40008091C00085FFFCCFB092C60043CEE09188
:107E50000601F091070194918091C00085FFFCCF4D
:107E60009093C6009CCF80E10E94C73C33CE0E9415
:107E7000763C0E94763C182F0E94763C112309F430
:107E800083C0113009F484C08FE00E94C73C22CE29
:107E900080910C02816080930C02E5CE80910C02EF
:107EA000816080930C0259CF809107018823880F4D
:107EB000880B8A2180930B02809106019091070123
:107EC000880F991F90930701809306018091080203
:107ED00080FF09C080910802909109020196909359
:107EE000090280930802F894F999FECF1127E091D6
:107EF0000601F0910701C8E0D1E08091080290915D
:107F00000902103091F40091570001700130D9F34B
:107F100003E000935700E89500915700017001308D
:107F2000D9F301E100935700E89509901990009169
:107F3000570001700130D9F301E000935700E89534
:107F40001395103498F011270091570001700130FB
:107F5000D9F305E000935700E895009157000170B0
:107F60000130D9F301E100935700E895329602976A
:107F700009F0C7CF103011F00296E5CF112480919F
:107F8000C00085FFB9CEBCCE8EE10E94C73CA2CD19
:0C7F900085E90E94C73C9ECDF894FFCF0D
:027F9C00800063
:040000030000780081
:00000001FF